{
  "contractName": "Fundraiser",
  "abi": [
    {
      "inputs": [
        {
          "internalType": "string",
          "name": "_name",
          "type": "string"
        },
        {
          "internalType": "string",
          "name": "_url",
          "type": "string"
        },
        {
          "internalType": "string",
          "name": "_imageURL",
          "type": "string"
        },
        {
          "internalType": "string",
          "name": "_description",
          "type": "string"
        },
        {
          "internalType": "uint256",
          "name": "_goal",
          "type": "uint256"
        },
        {
          "internalType": "address payable",
          "name": "_beneficiary",
          "type": "address"
        },
        {
          "internalType": "address",
          "name": "_custodian",
          "type": "address"
        }
      ],
      "stateMutability": "nonpayable",
      "type": "constructor"
    },
    {
      "inputs": [
        {
          "internalType": "address",
          "name": "owner",
          "type": "address"
        }
      ],
      "name": "OwnableInvalidOwner",
      "type": "error"
    },
    {
      "inputs": [
        {
          "internalType": "address",
          "name": "account",
          "type": "address"
        }
      ],
      "name": "OwnableUnauthorizedAccount",
      "type": "error"
    },
    {
      "anonymous": false,
      "inputs": [
        {
          "indexed": true,
          "internalType": "address",
          "name": "donor",
          "type": "address"
        },
        {
          "indexed": false,
          "internalType": "uint256",
          "name": "value",
          "type": "uint256"
        }
      ],
      "name": "DonationReceived",
      "type": "event"
    },
    {
      "anonymous": false,
      "inputs": [
        {
          "indexed": true,
          "internalType": "address",
          "name": "previousOwner",
          "type": "address"
        },
        {
          "indexed": true,
          "internalType": "address",
          "name": "newOwner",
          "type": "address"
        }
      ],
      "name": "OwnershipTransferred",
      "type": "event"
    },
    {
      "anonymous": false,
      "inputs": [
        {
          "indexed": false,
          "internalType": "uint256",
          "name": "amount",
          "type": "uint256"
        }
      ],
      "name": "Withdraw",
      "type": "event"
    },
    {
      "inputs": [],
      "name": "beneficiary",
      "outputs": [
        {
          "internalType": "address payable",
          "name": "",
          "type": "address"
        }
      ],
      "stateMutability": "view",
      "type": "function"
    },
    {
      "inputs": [],
      "name": "custodian",
      "outputs": [
        {
          "internalType": "address",
          "name": "",
          "type": "address"
        }
      ],
      "stateMutability": "view",
      "type": "function"
    },
    {
      "inputs": [],
      "name": "description",
      "outputs": [
        {
          "internalType": "string",
          "name": "",
          "type": "string"
        }
      ],
      "stateMutability": "view",
      "type": "function"
    },
    {
      "inputs": [],
      "name": "donationsCount",
      "outputs": [
        {
          "internalType": "uint256",
          "name": "",
          "type": "uint256"
        }
      ],
      "stateMutability": "view",
      "type": "function"
    },
    {
      "inputs": [],
      "name": "goal",
      "outputs": [
        {
          "internalType": "uint256",
          "name": "",
          "type": "uint256"
        }
      ],
      "stateMutability": "view",
      "type": "function"
    },
    {
      "inputs": [],
      "name": "imageURL",
      "outputs": [
        {
          "internalType": "string",
          "name": "",
          "type": "string"
        }
      ],
      "stateMutability": "view",
      "type": "function"
    },
    {
      "inputs": [],
      "name": "name",
      "outputs": [
        {
          "internalType": "string",
          "name": "",
          "type": "string"
        }
      ],
      "stateMutability": "view",
      "type": "function"
    },
    {
      "inputs": [],
      "name": "owner",
      "outputs": [
        {
          "internalType": "address",
          "name": "",
          "type": "address"
        }
      ],
      "stateMutability": "view",
      "type": "function"
    },
    {
      "inputs": [],
      "name": "renounceOwnership",
      "outputs": [],
      "stateMutability": "nonpayable",
      "type": "function"
    },
    {
      "inputs": [],
      "name": "totalDonations",
      "outputs": [
        {
          "internalType": "uint256",
          "name": "",
          "type": "uint256"
        }
      ],
      "stateMutability": "view",
      "type": "function"
    },
    {
      "inputs": [
        {
          "internalType": "address",
          "name": "newOwner",
          "type": "address"
        }
      ],
      "name": "transferOwnership",
      "outputs": [],
      "stateMutability": "nonpayable",
      "type": "function"
    },
    {
      "inputs": [],
      "name": "url",
      "outputs": [
        {
          "internalType": "string",
          "name": "",
          "type": "string"
        }
      ],
      "stateMutability": "view",
      "type": "function"
    },
    {
      "stateMutability": "payable",
      "type": "receive"
    },
    {
      "inputs": [
        {
          "internalType": "address payable",
          "name": "_beneficiary",
          "type": "address"
        }
      ],
      "name": "setBeneficiary",
      "outputs": [],
      "stateMutability": "nonpayable",
      "type": "function"
    },
    {
      "inputs": [],
      "name": "myDonationsCount",
      "outputs": [
        {
          "internalType": "uint256",
          "name": "",
          "type": "uint256"
        }
      ],
      "stateMutability": "view",
      "type": "function"
    },
    {
      "inputs": [],
      "name": "myDonations",
      "outputs": [
        {
          "internalType": "uint256[]",
          "name": "values",
          "type": "uint256[]"
        },
        {
          "internalType": "uint256[]",
          "name": "dates",
          "type": "uint256[]"
        }
      ],
      "stateMutability": "view",
      "type": "function"
    },
    {
      "inputs": [],
      "name": "donate",
      "outputs": [],
      "stateMutability": "payable",
      "type": "function"
    },
    {
      "inputs": [],
      "name": "withdraw",
      "outputs": [],
      "stateMutability": "payable",
      "type": "function"
    }
  ],
  "bytecode": "0x60806040525f6009555f600a5534801562000018575f80fd5b5060405162000d0e38038062000d0e8339810160408190526200003b916200021f565b33806200006157604051631e4fbdf760e01b81525f600482015260240160405180910390fd5b6200006c81620000f6565b5060026200007b88826200038a565b5060036200008a87826200038a565b5060046200009986826200038a565b506005620000a885826200038a565b50600880546001600160a01b038085166001600160a01b03199283161790925560068590556007805492841692909116919091179055620000e981620000f6565b5050505050505062000452565b5f80546001600160a01b038381166001600160a01b0319831681178455604051919092169283917f8be0079c531659141344cd1fd0a4f28419497f9722a3daafe3b4186f6b6457e09190a35050565b634e487b7160e01b5f52604160045260245ffd5b5f82601f83011262000169575f80fd5b81516001600160401b038082111562000186576200018662000145565b604051601f8301601f19908116603f01168101908282118183101715620001b157620001b162000145565b81604052838152602092508683858801011115620001cd575f80fd5b5f91505b83821015620001f05785820183015181830184015290820190620001d1565b5f93810190920192909252949350505050565b80516001600160a01b03811681146200021a575f80fd5b919050565b5f805f805f805f60e0888a03121562000236575f80fd5b87516001600160401b03808211156200024d575f80fd5b6200025b8b838c0162000159565b985060208a015191508082111562000271575f80fd5b6200027f8b838c0162000159565b975060408a015191508082111562000295575f80fd5b620002a38b838c0162000159565b965060608a0151915080821115620002b9575f80fd5b50620002c88a828b0162000159565b94505060808801519250620002e060a0890162000203565b9150620002f060c0890162000203565b905092959891949750929550565b600181811c908216806200031357607f821691505b6020821081036200033257634e487b7160e01b5f52602260045260245ffd5b50919050565b601f82111562000385575f81815260208120601f850160051c81016020861015620003605750805b601f850160051c820191505b8181101562000381578281556001016200036c565b5050505b505050565b81516001600160401b03811115620003a657620003a662000145565b620003be81620003b78454620002fe565b8462000338565b602080601f831160018114620003f4575f8415620003dc5750858301515b5f19600386901b1c1916600185901b17855562000381565b5f85815260208120601f198616915b82811015620004245788860151825594840194600190910190840162000403565b50858210156200044257878501515f19600388901b60f8161c191681555b5050505050600190811b01905550565b6108ae80620004605f395ff3fe6080604052600436106100fd575f3560e01c806340193883116100925780638da5cb5b116100625780638da5cb5b14610283578063b90497e01461029f578063de2ed893146102b3578063ed88c68e146102c8578063f2fde38b146102d0575f80fd5b806340193883146102325780635600f04f14610247578063715018a61461025b5780637284e4161461026f575f80fd5b80631f522595116100cd5780631f522595146101bf578063375b74c3146101d457806338af3eed1461020b5780633ccfd60b1461022a575f80fd5b80630180b97c1461012c57806306fdde031461015b5780631a57f7b41461017c5780631c31f7101461019e575f80fd5b3661012857346009546101109190610700565b600955600a8054905f61012283610719565b91905055005b5f80fd5b348015610137575f80fd5b50335f908152600160205260409020545b6040519081526020015b60405180910390f35b348015610166575f80fd5b5061016f6102ef565b6040516101529190610731565b348015610187575f80fd5b5061019061037b565b6040516101529291906107b5565b3480156101a9575f80fd5b506101bd6101b83660046107f6565b6104b5565b005b3480156101ca575f80fd5b50610148600a5481565b3480156101df575f80fd5b506007546101f3906001600160a01b031681565b6040516001600160a01b039091168152602001610152565b348015610216575f80fd5b506008546101f3906001600160a01b031681565b6101bd6104df565b34801561023d575f80fd5b5061014860065481565b348015610252575f80fd5b5061016f610555565b348015610266575f80fd5b506101bd610562565b34801561027a575f80fd5b5061016f610575565b34801561028e575f80fd5b505f546001600160a01b03166101f3565b3480156102aa575f80fd5b5061016f610582565b3480156102be575f80fd5b5061014860095481565b6101bd61058f565b3480156102db575f80fd5b506101bd6102ea3660046107f6565b61062f565b600280546102fc90610818565b80601f016020809104026020016040519081016040528092919081815260200182805461032890610818565b80156103735780601f1061034a57610100808354040283529160200191610373565b820191905f5260205f20905b81548152906001019060200180831161035657829003601f168201915b505050505081565b6060805f610394335f9081526001602052604090205490565b90508067ffffffffffffffff8111156103af576103af610850565b6040519080825280602002602001820160405280156103d8578160200160208202803683370190505b5092508067ffffffffffffffff8111156103f4576103f4610850565b60405190808252806020026020018201604052801561041d578160200160208202803683370190505b5091505f5b818110156104af57335f90815260016020526040812080548390811061044a5761044a610864565b905f5260205f2090600202019050805f015485838151811061046e5761046e610864565b602002602001018181525050806001015484838151811061049157610491610864565b602090810291909101015250806104a781610719565b915050610422565b50509091565b6104bd610671565b600880546001600160a01b0319166001600160a01b0392909216919091179055565b6104e7610671565b60085460405147916001600160a01b03169082156108fc029083905f818181858888f1935050505015801561051e573d5f803e3d5ffd5b506040518181527f5b6b431d4476a211bb7d41c20d1aab9ae2321deee0d20be3d9fc9b1093fa6e3d9060200160405180910390a150565b600380546102fc90610818565b61056a610671565b6105735f61069d565b565b600580546102fc90610818565b600480546102fc90610818565b60408051808201825234808252426020808401918252335f9081526001808352958120805480880182559082529190208451600290920201908155905193019290925560095490916105e091610700565b600955600a8054905f6105f283610719565b909155505060405134815233907f264f630d9efa0d07053a31163641d9fcc0adafc9d9e76f1c37c2ce3a558d2c529060200160405180910390a250565b610637610671565b6001600160a01b03811661066557604051631e4fbdf760e01b81525f60048201526024015b60405180910390fd5b61066e8161069d565b50565b5f546001600160a01b031633146105735760405163118cdaa760e01b815233600482015260240161065c565b5f80546001600160a01b038381166001600160a01b0319831681178455604051919092169283917f8be0079c531659141344cd1fd0a4f28419497f9722a3daafe3b4186f6b6457e09190a35050565b634e487b7160e01b5f52601160045260245ffd5b80820180821115610713576107136106ec565b92915050565b5f6001820161072a5761072a6106ec565b5060010190565b5f6020808352835180828501525f5b8181101561075c57858101830151858201604001528201610740565b505f604082860101526040601f19601f8301168501019250505092915050565b5f8151808452602080850194508084015f5b838110156107aa5781518752958201959082019060010161078e565b509495945050505050565b604081525f6107c7604083018561077c565b82810360208401526107d9818561077c565b95945050505050565b6001600160a01b038116811461066e575f80fd5b5f60208284031215610806575f80fd5b8135610811816107e2565b9392505050565b600181811c9082168061082c57607f821691505b60208210810361084a57634e487b7160e01b5f52602260045260245ffd5b50919050565b634e487b7160e01b5f52604160045260245ffd5b634e487b7160e01b5f52603260045260245ffdfea264697066735822122087f7047b68074d2951df32d20fe0078d367e75728aeab6aeb12dda6b78968f8f64736f6c63430008140033",
  "immutableReferences": {},
  "source": "// SPDX-License-Identifier: MIT\npragma solidity ^0.8.20;\n\nimport '@openzeppelin/contracts/access/Ownable.sol';\n\ncontract Fundraiser is Ownable {\n  struct Donation {\n    uint256 value;\n    uint256 date;\n  }\n\n  mapping(address => Donation[]) private _donations;\n\n  event DonationReceived(address indexed donor, uint256 value);\n  event Withdraw(uint256 amount);\n\n  string public name;\n  string public url;\n  string public imageURL;\n  string public description;\n  uint256 public goal;\n\n  address public custodian;\n  address payable public beneficiary;\n\n  uint256 public totalDonations = 0;\n  uint256 public donationsCount = 0;\n\n  constructor(\n    string memory _name,\n    string memory _url,\n    string memory _imageURL,\n    string memory _description,\n    uint256 _goal,\n    address payable _beneficiary,\n    address _custodian\n  ) Ownable(msg.sender) {\n    name = _name;\n    url = _url;\n    imageURL = _imageURL;\n    description = _description;\n    beneficiary = _beneficiary;\n    goal = _goal;\n    custodian = _custodian;\n    _transferOwnership(_custodian);\n  }\n\n  /**\n   * @dev Update beneficiary\n   * @param _beneficiary Benerifiary address\n   */\n  function setBeneficiary(address payable _beneficiary) public onlyOwner {\n    beneficiary = _beneficiary;\n  }\n\n  /**\n   * @dev Return wallet's donations count\n   */\n  function myDonationsCount() public view returns (uint256) {\n    return _donations[msg.sender].length;\n  }\n\n  /**\n   * @dev Return wallet's donations\n   */\n  function myDonations()\n    public\n    view\n    returns (uint256[] memory values, uint256[] memory dates)\n  {\n    uint256 count = myDonationsCount();\n    values = new uint256[](count);\n    dates = new uint256[](count);\n    for (uint256 i = 0; i < count; i++) {\n      Donation storage donation = _donations[msg.sender][i];\n      values[i] = donation.value;\n      dates[i] = donation.date;\n    }\n\n    return (values, dates);\n  }\n\n  /**\n   * @dev Make a donation\n   */\n  function donate() public payable {\n    Donation memory donation = Donation({\n      value: msg.value,\n      date: block.timestamp\n    });\n\n    _donations[msg.sender].push(donation);\n    totalDonations = totalDonations + msg.value;\n    donationsCount++;\n\n    emit DonationReceived(msg.sender, msg.value);\n  }\n\n  /**\n   * @dev Transfer contrac's funds to beneficiary wallet\n   */\n  function withdraw() public payable onlyOwner {\n    uint256 balance = address(this).balance;\n    beneficiary.transfer(balance);\n    emit Withdraw(balance);\n  }\n\n  /**\n   * @dev Anonymous donation\n   */\n  receive() external payable {\n    totalDonations = totalDonations + msg.value;\n    donationsCount++;\n  }\n}\n",
  "sourcePath": "/Users/kirillputernic/Github/fundraiser-dapp/src/truffle/contracts/Fundraiser.sol",
  "compiler": {
    "name": "solc",
    "version": "0.8.20+commit.a1b79de6.Emscripten.clang"
  },
  "schemaVersion": "3.4.16",
  "updatedAt": "2023-12-11T12:20:42.599Z",
  "devdoc": {
    "errors": {
      "OwnableInvalidOwner(address)": [
        {
          "details": "The owner is not a valid owner account. (eg. `address(0)`)"
        }
      ],
      "OwnableUnauthorizedAccount(address)": [
        {
          "details": "The caller account is not authorized to perform an operation."
        }
      ]
    },
    "kind": "dev",
    "methods": {
      "donate()": {
        "details": "Make a donation"
      },
      "myDonations()": {
        "details": "Return wallet's donations"
      },
      "myDonationsCount()": {
        "details": "Return wallet's donations count"
      },
      "owner()": {
        "details": "Returns the address of the current owner."
      },
      "renounceOwnership()": {
        "details": "Leaves the contract without owner. It will not be possible to call `onlyOwner` functions. Can only be called by the current owner. NOTE: Renouncing ownership will leave the contract without an owner, thereby disabling any functionality that is only available to the owner."
      },
      "setBeneficiary(address)": {
        "details": "Update beneficiary",
        "params": {
          "_beneficiary": "Benerifiary address"
        }
      },
      "transferOwnership(address)": {
        "details": "Transfers ownership of the contract to a new account (`newOwner`). Can only be called by the current owner."
      },
      "withdraw()": {
        "details": "Transfer contrac's funds to beneficiary wallet"
      }
    },
    "version": 1
  },
  "userdoc": {
    "kind": "user",
    "methods": {},
    "version": 1
  }
}