{
  "contractName": "FundraiserFactory",
  "abi": [
    {
      "anonymous": false,
      "inputs": [
        {
          "indexed": true,
          "internalType": "contract Fundraiser",
          "name": "fundraiser",
          "type": "address"
        },
        {
          "indexed": true,
          "internalType": "address",
          "name": "owner",
          "type": "address"
        }
      ],
      "name": "FundraiserCreated",
      "type": "event"
    },
    {
      "inputs": [],
      "name": "fundraisersCount",
      "outputs": [
        {
          "internalType": "uint256",
          "name": "",
          "type": "uint256"
        }
      ],
      "stateMutability": "view",
      "type": "function"
    },
    {
      "inputs": [
        {
          "internalType": "string",
          "name": "name",
          "type": "string"
        },
        {
          "internalType": "string",
          "name": "url",
          "type": "string"
        },
        {
          "internalType": "string",
          "name": "imageURL",
          "type": "string"
        },
        {
          "internalType": "string",
          "name": "description",
          "type": "string"
        },
        {
          "internalType": "uint256",
          "name": "goal",
          "type": "uint256"
        },
        {
          "internalType": "address payable",
          "name": "beneficiary",
          "type": "address"
        }
      ],
      "name": "createFundraiser",
      "outputs": [],
      "stateMutability": "nonpayable",
      "type": "function"
    },
    {
      "inputs": [
        {
          "internalType": "uint256",
          "name": "limit",
          "type": "uint256"
        },
        {
          "internalType": "uint256",
          "name": "offset",
          "type": "uint256"
        }
      ],
      "name": "fundraisers",
      "outputs": [
        {
          "internalType": "contract Fundraiser[]",
          "name": "coll",
          "type": "address[]"
        }
      ],
      "stateMutability": "view",
      "type": "function"
    }
  ],
  "bytecode": "0x608060405234801561000f575f80fd5b506113598061001d5f395ff3fe608060405234801562000010575f80fd5b506004361062000044575f3560e01c8063398f39f81462000048578063704914f814620000615780639d3b43551462000090575b5f80fd5b6200005f62000059366004620003a7565b620000a1565b005b620000786200007236600462000474565b62000167565b60405162000087919062000495565b60405180910390f35b5f5460405190815260200162000087565b5f86868686868633604051620000b790620002d8565b620000c9979695949392919062000528565b604051809103905ff080158015620000e3573d5f803e3d5ffd5b505f80546001810182558180527f290decd9548b62a8d60345a988386fc84ba6bc95484008f6362f93160ef3e5630180546001600160a01b0319166001600160a01b038481169182179092556040519394509085169290917fa2398daac0c8053a1e3c0280916c2ec6bc884f0959c27e639a4db829b7eabfb191a350505050505050565b6060620001725f5490565b821115620001bd5760405162461bcd60e51b81526020600482015260146024820152736f6666736574206f7574206f6620626f756e647360601b604482015260640160405180910390fd5b5f82620001c85f5490565b620001d49190620005ba565b9050838110620001e55783620001e7565b805b905060148110620001fa576014620001fc565b805b90508067ffffffffffffffff8111156200021a576200021a620002e6565b60405190808252806020026020018201604052801562000244578160200160208202803683370190505b5091505f5b81811015620002cf575f6200025f8286620005d0565b81548110620002725762000272620005e6565b905f5260205f20015f9054906101000a90046001600160a01b0316838281518110620002a257620002a2620005e6565b6001600160a01b039092166020928302919091019091015280620002c681620005fa565b91505062000249565b50505b92915050565b610d0e806200061683390190565b634e487b7160e01b5f52604160045260245ffd5b5f82601f8301126200030a575f80fd5b813567ffffffffffffffff80821115620003285762000328620002e6565b604051601f8301601f19908116603f01168101908282118183101715620003535762000353620002e6565b816040528381528660208588010111156200036c575f80fd5b836020870160208301375f602085830101528094505050505092915050565b80356001600160a01b0381168114620003a2575f80fd5b919050565b5f805f805f8060c08789031215620003bd575f80fd5b863567ffffffffffffffff80821115620003d5575f80fd5b620003e38a838b01620002fa565b97506020890135915080821115620003f9575f80fd5b620004078a838b01620002fa565b965060408901359150808211156200041d575f80fd5b6200042b8a838b01620002fa565b9550606089013591508082111562000441575f80fd5b506200045089828a01620002fa565b935050608087013591506200046860a088016200038b565b90509295509295509295565b5f806040838503121562000486575f80fd5b50508035926020909101359150565b602080825282518282018190525f9190848201906040850190845b81811015620004d75783516001600160a01b031683529284019291840191600101620004b0565b50909695505050505050565b5f81518084525f5b818110156200050957602081850181015186830182015201620004eb565b505f602082860101526020601f19601f83011685010191505092915050565b60e081525f6200053c60e083018a620004e3565b828103602084015262000550818a620004e3565b90508281036040840152620005668189620004e3565b905082810360608401526200057c8188620004e3565b608084019690965250506001600160a01b0392831660a0820152911660c090910152949350505050565b634e487b7160e01b5f52601160045260245ffd5b81810381811115620002d257620002d2620005a6565b80820180821115620002d257620002d2620005a6565b634e487b7160e01b5f52603260045260245ffd5b5f600182016200060e576200060e620005a6565b506001019056fe60806040525f6009555f600a5534801562000018575f80fd5b5060405162000d0e38038062000d0e8339810160408190526200003b916200021f565b33806200006157604051631e4fbdf760e01b81525f600482015260240160405180910390fd5b6200006c81620000f6565b5060026200007b88826200038a565b5060036200008a87826200038a565b5060046200009986826200038a565b506005620000a885826200038a565b50600880546001600160a01b038085166001600160a01b03199283161790925560068590556007805492841692909116919091179055620000e981620000f6565b5050505050505062000452565b5f80546001600160a01b038381166001600160a01b0319831681178455604051919092169283917f8be0079c531659141344cd1fd0a4f28419497f9722a3daafe3b4186f6b6457e09190a35050565b634e487b7160e01b5f52604160045260245ffd5b5f82601f83011262000169575f80fd5b81516001600160401b038082111562000186576200018662000145565b604051601f8301601f19908116603f01168101908282118183101715620001b157620001b162000145565b81604052838152602092508683858801011115620001cd575f80fd5b5f91505b83821015620001f05785820183015181830184015290820190620001d1565b5f93810190920192909252949350505050565b80516001600160a01b03811681146200021a575f80fd5b919050565b5f805f805f805f60e0888a03121562000236575f80fd5b87516001600160401b03808211156200024d575f80fd5b6200025b8b838c0162000159565b985060208a015191508082111562000271575f80fd5b6200027f8b838c0162000159565b975060408a015191508082111562000295575f80fd5b620002a38b838c0162000159565b965060608a0151915080821115620002b9575f80fd5b50620002c88a828b0162000159565b94505060808801519250620002e060a0890162000203565b9150620002f060c0890162000203565b905092959891949750929550565b600181811c908216806200031357607f821691505b6020821081036200033257634e487b7160e01b5f52602260045260245ffd5b50919050565b601f82111562000385575f81815260208120601f850160051c81016020861015620003605750805b601f850160051c820191505b8181101562000381578281556001016200036c565b5050505b505050565b81516001600160401b03811115620003a657620003a662000145565b620003be81620003b78454620002fe565b8462000338565b602080601f831160018114620003f4575f8415620003dc5750858301515b5f19600386901b1c1916600185901b17855562000381565b5f85815260208120601f198616915b82811015620004245788860151825594840194600190910190840162000403565b50858210156200044257878501515f19600388901b60f8161c191681555b5050505050600190811b01905550565b6108ae80620004605f395ff3fe6080604052600436106100fd575f3560e01c806340193883116100925780638da5cb5b116100625780638da5cb5b14610283578063b90497e01461029f578063de2ed893146102b3578063ed88c68e146102c8578063f2fde38b146102d0575f80fd5b806340193883146102325780635600f04f14610247578063715018a61461025b5780637284e4161461026f575f80fd5b80631f522595116100cd5780631f522595146101bf578063375b74c3146101d457806338af3eed1461020b5780633ccfd60b1461022a575f80fd5b80630180b97c1461012c57806306fdde031461015b5780631a57f7b41461017c5780631c31f7101461019e575f80fd5b3661012857346009546101109190610700565b600955600a8054905f61012283610719565b91905055005b5f80fd5b348015610137575f80fd5b50335f908152600160205260409020545b6040519081526020015b60405180910390f35b348015610166575f80fd5b5061016f6102ef565b6040516101529190610731565b348015610187575f80fd5b5061019061037b565b6040516101529291906107b5565b3480156101a9575f80fd5b506101bd6101b83660046107f6565b6104b5565b005b3480156101ca575f80fd5b50610148600a5481565b3480156101df575f80fd5b506007546101f3906001600160a01b031681565b6040516001600160a01b039091168152602001610152565b348015610216575f80fd5b506008546101f3906001600160a01b031681565b6101bd6104df565b34801561023d575f80fd5b5061014860065481565b348015610252575f80fd5b5061016f610555565b348015610266575f80fd5b506101bd610562565b34801561027a575f80fd5b5061016f610575565b34801561028e575f80fd5b505f546001600160a01b03166101f3565b3480156102aa575f80fd5b5061016f610582565b3480156102be575f80fd5b5061014860095481565b6101bd61058f565b3480156102db575f80fd5b506101bd6102ea3660046107f6565b61062f565b600280546102fc90610818565b80601f016020809104026020016040519081016040528092919081815260200182805461032890610818565b80156103735780601f1061034a57610100808354040283529160200191610373565b820191905f5260205f20905b81548152906001019060200180831161035657829003601f168201915b505050505081565b6060805f610394335f9081526001602052604090205490565b90508067ffffffffffffffff8111156103af576103af610850565b6040519080825280602002602001820160405280156103d8578160200160208202803683370190505b5092508067ffffffffffffffff8111156103f4576103f4610850565b60405190808252806020026020018201604052801561041d578160200160208202803683370190505b5091505f5b818110156104af57335f90815260016020526040812080548390811061044a5761044a610864565b905f5260205f2090600202019050805f015485838151811061046e5761046e610864565b602002602001018181525050806001015484838151811061049157610491610864565b602090810291909101015250806104a781610719565b915050610422565b50509091565b6104bd610671565b600880546001600160a01b0319166001600160a01b0392909216919091179055565b6104e7610671565b60085460405147916001600160a01b03169082156108fc029083905f818181858888f1935050505015801561051e573d5f803e3d5ffd5b506040518181527f5b6b431d4476a211bb7d41c20d1aab9ae2321deee0d20be3d9fc9b1093fa6e3d9060200160405180910390a150565b600380546102fc90610818565b61056a610671565b6105735f61069d565b565b600580546102fc90610818565b600480546102fc90610818565b60408051808201825234808252426020808401918252335f9081526001808352958120805480880182559082529190208451600290920201908155905193019290925560095490916105e091610700565b600955600a8054905f6105f283610719565b909155505060405134815233907f264f630d9efa0d07053a31163641d9fcc0adafc9d9e76f1c37c2ce3a558d2c529060200160405180910390a250565b610637610671565b6001600160a01b03811661066557604051631e4fbdf760e01b81525f60048201526024015b60405180910390fd5b61066e8161069d565b50565b5f546001600160a01b031633146105735760405163118cdaa760e01b815233600482015260240161065c565b5f80546001600160a01b038381166001600160a01b0319831681178455604051919092169283917f8be0079c531659141344cd1fd0a4f28419497f9722a3daafe3b4186f6b6457e09190a35050565b634e487b7160e01b5f52601160045260245ffd5b80820180821115610713576107136106ec565b92915050565b5f6001820161072a5761072a6106ec565b5060010190565b5f6020808352835180828501525f5b8181101561075c57858101830151858201604001528201610740565b505f604082860101526040601f19601f8301168501019250505092915050565b5f8151808452602080850194508084015f5b838110156107aa5781518752958201959082019060010161078e565b509495945050505050565b604081525f6107c7604083018561077c565b82810360208401526107d9818561077c565b95945050505050565b6001600160a01b038116811461066e575f80fd5b5f60208284031215610806575f80fd5b8135610811816107e2565b9392505050565b600181811c9082168061082c57607f821691505b60208210810361084a57634e487b7160e01b5f52602260045260245ffd5b50919050565b634e487b7160e01b5f52604160045260245ffd5b634e487b7160e01b5f52603260045260245ffdfea264697066735822122087f7047b68074d2951df32d20fe0078d367e75728aeab6aeb12dda6b78968f8f64736f6c63430008140033a26469706673582212200fda08d226749f85e8dca59d2b6053feeda4995ea57f491b4abb8fef2a592a3a64736f6c63430008140033",
  "immutableReferences": {},
  "source": "// SPDX-License-Identifier: MIT\npragma solidity ^0.8.20;\n\nimport './Fundraiser.sol';\n\ncontract FundraiserFactory {\n  uint256 constant maxLimit = 20;\n  Fundraiser[] private _fundraisers;\n\n  event FundraiserCreated(Fundraiser indexed fundraiser, address indexed owner);\n\n  /**\n   * @dev Get fundraisers count\n   */\n  function fundraisersCount() public view returns (uint256) {\n    return _fundraisers.length;\n  }\n\n  /**\n   * @dev Create a fundraiser\n   * @param name Fundraiser name\n   * @param url Fundraiser url\n   * @param imageURL Fundraiser imageURL\n   * @param description Fundraiser description\n   * @param goal Fundraiser goal\n   * @param beneficiary Fundraiser wallet address\n   */\n  function createFundraiser(\n    string memory name,\n    string memory url,\n    string memory imageURL,\n    string memory description,\n    uint256 goal,\n    address payable beneficiary\n  ) public {\n    Fundraiser fundraiser = new Fundraiser(\n      name,\n      url,\n      imageURL,\n      description,\n      goal,\n      beneficiary,\n      msg.sender\n    );\n    _fundraisers.push(fundraiser);\n\n    emit FundraiserCreated(fundraiser, beneficiary);\n  }\n\n  /**\n   * @dev Return paginated list of fundraisers\n   * @param limit Limit\n   * @param offset offset\n   */\n  function fundraisers(\n    uint256 limit,\n    uint256 offset\n  ) public view returns (Fundraiser[] memory coll) {\n    require(offset <= fundraisersCount(), 'offset out of bounds');\n\n    uint256 size = fundraisersCount() - offset;\n    size = size < limit ? size : limit;\n    size = size < maxLimit ? size : maxLimit;\n\n    coll = new Fundraiser[](size);\n\n    for (uint256 i = 0; i < size; i++) {\n      coll[i] = _fundraisers[offset + i];\n    }\n\n    return coll;\n  }\n}\n",
  "sourcePath": "/Users/kirillputernic/Github/fundraiser-dapp/src/truffle/contracts/FundraiserFactory.sol",
  "compiler": {
    "name": "solc",
    "version": "0.8.20+commit.a1b79de6.Emscripten.clang"
  },
  "schemaVersion": "3.4.16",
  "updatedAt": "2023-12-11T12:20:42.601Z",
  "devdoc": {
    "kind": "dev",
    "methods": {
      "createFundraiser(string,string,string,string,uint256,address)": {
        "details": "Create a fundraiser",
        "params": {
          "beneficiary": "Fundraiser wallet address",
          "description": "Fundraiser description",
          "goal": "Fundraiser goal",
          "imageURL": "Fundraiser imageURL",
          "name": "Fundraiser name",
          "url": "Fundraiser url"
        }
      },
      "fundraisers(uint256,uint256)": {
        "details": "Return paginated list of fundraisers",
        "params": {
          "limit": "Limit",
          "offset": "offset"
        }
      },
      "fundraisersCount()": {
        "details": "Get fundraisers count"
      }
    },
    "version": 1
  },
  "userdoc": {
    "kind": "user",
    "methods": {},
    "version": 1
  }
}